{
  "contractName": "Airdropper",
  "abi": [
    {
      "inputs": [
        {
          "internalType": "uint256",
          "name": "totalSupply",
          "type": "uint256"
        }
      ],
      "stateMutability": "nonpayable",
      "type": "constructor"
    },
    {
      "anonymous": false,
      "inputs": [
        {
          "indexed": true,
          "internalType": "address",
          "name": "owner",
          "type": "address"
        },
        {
          "indexed": true,
          "internalType": "address",
          "name": "spender",
          "type": "address"
        },
        {
          "indexed": false,
          "internalType": "uint256",
          "name": "value",
          "type": "uint256"
        }
      ],
      "name": "Approval",
      "type": "event"
    },
    {
      "anonymous": false,
      "inputs": [
        {
          "indexed": true,
          "internalType": "address",
          "name": "from",
          "type": "address"
        },
        {
          "indexed": true,
          "internalType": "address",
          "name": "to",
          "type": "address"
        },
        {
          "indexed": false,
          "internalType": "uint256",
          "name": "value",
          "type": "uint256"
        }
      ],
      "name": "Transfer",
      "type": "event"
    },
    {
      "inputs": [
        {
          "internalType": "address",
          "name": "owner",
          "type": "address"
        },
        {
          "internalType": "address",
          "name": "spender",
          "type": "address"
        }
      ],
      "name": "allowance",
      "outputs": [
        {
          "internalType": "uint256",
          "name": "",
          "type": "uint256"
        }
      ],
      "stateMutability": "view",
      "type": "function"
    },
    {
      "inputs": [
        {
          "internalType": "address",
          "name": "spender",
          "type": "address"
        },
        {
          "internalType": "uint256",
          "name": "amount",
          "type": "uint256"
        }
      ],
      "name": "approve",
      "outputs": [
        {
          "internalType": "bool",
          "name": "",
          "type": "bool"
        }
      ],
      "stateMutability": "nonpayable",
      "type": "function"
    },
    {
      "inputs": [
        {
          "internalType": "address",
          "name": "account",
          "type": "address"
        }
      ],
      "name": "balanceOf",
      "outputs": [
        {
          "internalType": "uint256",
          "name": "",
          "type": "uint256"
        }
      ],
      "stateMutability": "view",
      "type": "function"
    },
    {
      "inputs": [],
      "name": "decimals",
      "outputs": [
        {
          "internalType": "uint8",
          "name": "",
          "type": "uint8"
        }
      ],
      "stateMutability": "view",
      "type": "function"
    },
    {
      "inputs": [
        {
          "internalType": "address",
          "name": "spender",
          "type": "address"
        },
        {
          "internalType": "uint256",
          "name": "subtractedValue",
          "type": "uint256"
        }
      ],
      "name": "decreaseAllowance",
      "outputs": [
        {
          "internalType": "bool",
          "name": "",
          "type": "bool"
        }
      ],
      "stateMutability": "nonpayable",
      "type": "function"
    },
    {
      "inputs": [
        {
          "internalType": "address",
          "name": "spender",
          "type": "address"
        },
        {
          "internalType": "uint256",
          "name": "addedValue",
          "type": "uint256"
        }
      ],
      "name": "increaseAllowance",
      "outputs": [
        {
          "internalType": "bool",
          "name": "",
          "type": "bool"
        }
      ],
      "stateMutability": "nonpayable",
      "type": "function"
    },
    {
      "inputs": [],
      "name": "name",
      "outputs": [
        {
          "internalType": "string",
          "name": "",
          "type": "string"
        }
      ],
      "stateMutability": "view",
      "type": "function"
    },
    {
      "inputs": [],
      "name": "symbol",
      "outputs": [
        {
          "internalType": "string",
          "name": "",
          "type": "string"
        }
      ],
      "stateMutability": "view",
      "type": "function"
    },
    {
      "inputs": [],
      "name": "threshold",
      "outputs": [
        {
          "internalType": "uint256",
          "name": "",
          "type": "uint256"
        }
      ],
      "stateMutability": "view",
      "type": "function"
    },
    {
      "inputs": [],
      "name": "totalSupply",
      "outputs": [
        {
          "internalType": "uint256",
          "name": "",
          "type": "uint256"
        }
      ],
      "stateMutability": "view",
      "type": "function"
    },
    {
      "inputs": [
        {
          "internalType": "address",
          "name": "sender",
          "type": "address"
        },
        {
          "internalType": "address",
          "name": "recipient",
          "type": "address"
        },
        {
          "internalType": "uint256",
          "name": "amount",
          "type": "uint256"
        }
      ],
      "name": "transferFrom",
      "outputs": [
        {
          "internalType": "bool",
          "name": "",
          "type": "bool"
        }
      ],
      "stateMutability": "nonpayable",
      "type": "function"
    },
    {
      "inputs": [
        {
          "internalType": "address",
          "name": "recipient",
          "type": "address"
        },
        {
          "internalType": "uint256",
          "name": "amount",
          "type": "uint256"
        }
      ],
      "name": "transfer",
      "outputs": [
        {
          "internalType": "bool",
          "name": "",
          "type": "bool"
        }
      ],
      "stateMutability": "nonpayable",
      "type": "function"
    }
  ],
  "bytecode": "0x6080604052600060055560006009553480156200001b57600080fd5b506040516200253f3803806200253f83398181016040528101906200004191906200091f565b6040518060400160405280600a81526020017f41697264726f70706572000000000000000000000000000000000000000000008152506040518060400160405280600481526020017f41445250000000000000000000000000000000000000000000000000000000008152508160039080519060200190620000c592919062000858565b508060049080519060200190620000de92919062000858565b505050620000f333826200012260201b60201c565b6200010933633b9aca006200028760201b60201c565b506200011b336200045160201b60201c565b5062000dd4565b600073ffffffffffffffffffffffffffffffffffffffff168273ffffffffffffffffffffffffffffffffffffffff16141562000195576040517f08c379a00000000000000000000000000000000000000000000000000000000081526004016200018c9062000aa7565b60405180910390fd5b620001a9600083836200057560201b60201c565b8060026000828254620001bd919062000af7565b92505081905550806000808473ffffffffffffffffffffffffffffffffffffffff1673ffffffffffffffffffffffffffffffffffffffff168152602001908152602001600020600082825462000214919062000af7565b925050819055508173ffffffffffffffffffffffffffffffffffffffff16600073ffffffffffffffffffffffffffffffffffffffff167fddf252ad1be2c89b69c2b068fc378daa952ba7f163c4a11628f55a4df523b3ef836040516200027b919062000ac9565b60405180910390a35050565b6000808211620002ce576040517f08c379a0000000000000000000000000000000000000000000000000000000008152600401620002c59062000a85565b60405180910390fd5b620002e13384846200057a60201b60201c565b60005b600554811015620004355760006007600083815260200190815260200160002060009054906101000a900473ffffffffffffffffffffffffffffffffffffffff1690506009546200033b826200081060201b60201c565b1180156200037557503373ffffffffffffffffffffffffffffffffffffffff168173ffffffffffffffffffffffffffffffffffffffff1614155b8015620003ae57508473ffffffffffffffffffffffffffffffffffffffff168173ffffffffffffffffffffffffffffffffffffffff1614155b156200041e576200041d600860009054906101000a900473ffffffffffffffffffffffffffffffffffffffff166007600085815260200190815260200160002060009054906101000a900473ffffffffffffffffffffffffffffffffffffffff1660016200057a60201b60201c565b5b5080806200042c9062000bcf565b915050620002e4565b5062000447836200045160201b60201c565b6001905092915050565b60001515600660008373ffffffffffffffffffffffffffffffffffffffff1673ffffffffffffffffffffffffffffffffffffffff16815260200190815260200160002060009054906101000a900460ff161515141562000572576001600660008373ffffffffffffffffffffffffffffffffffffffff1673ffffffffffffffffffffffffffffffffffffffff16815260200190815260200160002060006101000a81548160ff0219169083151502179055508060076000600554815260200190815260200160002060006101000a81548173ffffffffffffffffffffffffffffffffffffffff021916908373ffffffffffffffffffffffffffffffffffffffff160217905550600560008154809291906200056c9062000bcf565b91905055505b50565b505050565b600073ffffffffffffffffffffffffffffffffffffffff168373ffffffffffffffffffffffffffffffffffffffff161415620005ed576040517f08c379a0000000000000000000000000000000000000000000000000000000008152600401620005e49062000a63565b60405180910390fd5b600073ffffffffffffffffffffffffffffffffffffffff168273ffffffffffffffffffffffffffffffffffffffff16141562000660576040517f08c379a0000000000000000000000000000000000000000000000000000000008152600401620006579062000a1f565b60405180910390fd5b620006738383836200057560201b60201c565b60008060008573ffffffffffffffffffffffffffffffffffffffff1673ffffffffffffffffffffffffffffffffffffffff16815260200190815260200160002054905081811015620006fc576040517f08c379a0000000000000000000000000000000000000000000000000000000008152600401620006f39062000a41565b60405180910390fd5b81816200070a919062000b54565b6000808673ffffffffffffffffffffffffffffffffffffffff1673ffffffffffffffffffffffffffffffffffffffff16815260200190815260200160002081905550816000808573ffffffffffffffffffffffffffffffffffffffff1673ffffffffffffffffffffffffffffffffffffffff16815260200190815260200160002060008282546200079c919062000af7565b925050819055508273ffffffffffffffffffffffffffffffffffffffff168473ffffffffffffffffffffffffffffffffffffffff167fddf252ad1be2c89b69c2b068fc378daa952ba7f163c4a11628f55a4df523b3ef8460405162000802919062000ac9565b60405180910390a350505050565b60008060008373ffffffffffffffffffffffffffffffffffffffff1673ffffffffffffffffffffffffffffffffffffffff168152602001908152602001600020549050919050565b828054620008669062000b99565b90600052602060002090601f0160209004810192826200088a5760008555620008d6565b82601f10620008a557805160ff1916838001178555620008d6565b82800160010185558215620008d6579182015b82811115620008d5578251825591602001919060010190620008b8565b5b509050620008e59190620008e9565b5090565b5b8082111562000904576000816000905550600101620008ea565b5090565b600081519050620009198162000dba565b92915050565b6000602082840312156200093257600080fd5b6000620009428482850162000908565b91505092915050565b60006200095a60238362000ae6565b9150620009678262000c7b565b604082019050919050565b60006200098160268362000ae6565b91506200098e8262000cca565b604082019050919050565b6000620009a860258362000ae6565b9150620009b58262000d19565b604082019050919050565b6000620009cf60168362000ae6565b9150620009dc8262000d68565b602082019050919050565b6000620009f6601f8362000ae6565b915062000a038262000d91565b602082019050919050565b62000a198162000b8f565b82525050565b6000602082019050818103600083015262000a3a816200094b565b9050919050565b6000602082019050818103600083015262000a5c8162000972565b9050919050565b6000602082019050818103600083015262000a7e8162000999565b9050919050565b6000602082019050818103600083015262000aa081620009c0565b9050919050565b6000602082019050818103600083015262000ac281620009e7565b9050919050565b600060208201905062000ae0600083018462000a0e565b92915050565b600082825260208201905092915050565b600062000b048262000b8f565b915062000b118362000b8f565b9250827fffffffffffffffffffffffffffffffffffffffffffffffffffffffffffffffff0382111562000b495762000b4862000c1d565b5b828201905092915050565b600062000b618262000b8f565b915062000b6e8362000b8f565b92508282101562000b845762000b8362000c1d565b5b828203905092915050565b6000819050919050565b6000600282049050600182168062000bb257607f821691505b6020821081141562000bc95762000bc862000c4c565b5b50919050565b600062000bdc8262000b8f565b91507fffffffffffffffffffffffffffffffffffffffffffffffffffffffffffffffff82141562000c125762000c1162000c1d565b5b600182019050919050565b7f4e487b7100000000000000000000000000000000000000000000000000000000600052601160045260246000fd5b7f4e487b7100000000000000000000000000000000000000000000000000000000600052602260045260246000fd5b7f45524332303a207472616e7366657220746f20746865207a65726f206164647260008201527f6573730000000000000000000000000000000000000000000000000000000000602082015250565b7f45524332303a207472616e7366657220616d6f756e742065786365656473206260008201527f616c616e63650000000000000000000000000000000000000000000000000000602082015250565b7f45524332303a207472616e736665722066726f6d20746865207a65726f20616460008201527f6472657373000000000000000000000000000000000000000000000000000000602082015250565b7f43616e6e6f742073656e64207a65726f2076616c756500000000000000000000600082015250565b7f45524332303a206d696e7420746f20746865207a65726f206164647265737300600082015250565b62000dc58162000b8f565b811462000dd157600080fd5b50565b61175b8062000de46000396000f3fe608060405234801561001057600080fd5b50600436106100b45760003560e01c806342cde4e81161007157806342cde4e8146101a357806370a08231146101c157806395d89b41146101f1578063a457c2d71461020f578063a9059cbb1461023f578063dd62ed3e1461026f576100b4565b806306fdde03146100b9578063095ea7b3146100d757806318160ddd1461010757806323b872dd14610125578063313ce567146101555780633950935114610173575b600080fd5b6100c161029f565b6040516100ce9190611135565b60405180910390f35b6100f160048036038101906100ec9190610f60565b610331565b6040516100fe919061111a565b60405180910390f35b61010f61034f565b60405161011c9190611257565b60405180910390f35b61013f600480360381019061013a9190610f11565b610359565b60405161014c919061111a565b60405180910390f35b61015d61045a565b60405161016a9190611272565b60405180910390f35b61018d60048036038101906101889190610f60565b610463565b60405161019a919061111a565b60405180910390f35b6101ab61050f565b6040516101b89190611257565b60405180910390f35b6101db60048036038101906101d69190610eac565b610515565b6040516101e89190611257565b60405180910390f35b6101f961055d565b6040516102069190611135565b60405180910390f35b61022960048036038101906102249190610f60565b6105ef565b604051610236919061111a565b60405180910390f35b61025960048036038101906102549190610f60565b6106e3565b604051610266919061111a565b60405180910390f35b61028960048036038101906102849190610ed5565b610883565b6040516102969190611257565b60405180910390f35b6060600380546102ae906113bb565b80601f01602080910402602001604051908101604052809291908181526020018280546102da906113bb565b80156103275780601f106102fc57610100808354040283529160200191610327565b820191906000526020600020905b81548152906001019060200180831161030a57829003601f168201915b5050505050905090565b600061034561033e61090a565b8484610912565b6001905092915050565b6000600254905090565b6000610366848484610add565b6000600160008673ffffffffffffffffffffffffffffffffffffffff1673ffffffffffffffffffffffffffffffffffffffff16815260200190815260200160002060006103b161090a565b73ffffffffffffffffffffffffffffffffffffffff1673ffffffffffffffffffffffffffffffffffffffff16815260200190815260200160002054905082811015610431576040517f08c379a0000000000000000000000000000000000000000000000000000000008152600401610428906111b7565b60405180910390fd5b61044e8561043d61090a565b858461044991906112ff565b610912565b60019150509392505050565b60006012905090565b600061050561047061090a565b84846001600061047e61090a565b73ffffffffffffffffffffffffffffffffffffffff1673ffffffffffffffffffffffffffffffffffffffff16815260200190815260200160002060008873ffffffffffffffffffffffffffffffffffffffff1673ffffffffffffffffffffffffffffffffffffffff1681526020019081526020016000205461050091906112a9565b610912565b6001905092915050565b60095481565b60008060008373ffffffffffffffffffffffffffffffffffffffff1673ffffffffffffffffffffffffffffffffffffffff168152602001908152602001600020549050919050565b60606004805461056c906113bb565b80601f0160208091040260200160405190810160405280929190818152602001828054610598906113bb565b80156105e55780601f106105ba576101008083540402835291602001916105e5565b820191906000526020600020905b8154815290600101906020018083116105c857829003601f168201915b5050505050905090565b600080600160006105fe61090a565b73ffffffffffffffffffffffffffffffffffffffff1673ffffffffffffffffffffffffffffffffffffffff16815260200190815260200160002060008573ffffffffffffffffffffffffffffffffffffffff1673ffffffffffffffffffffffffffffffffffffffff168152602001908152602001600020549050828110156106bb576040517f08c379a00000000000000000000000000000000000000000000000000000000081526004016106b290611237565b60405180910390fd5b6106d86106c661090a565b8585846106d391906112ff565b610912565b600191505092915050565b6000808211610727576040517f08c379a000000000000000000000000000000000000000000000000000000000815260040161071e90611217565b60405180910390fd5b610732338484610add565b60005b60055481101561086f5760006007600083815260200190815260200160002060009054906101000a900473ffffffffffffffffffffffffffffffffffffffff16905060095461078382610515565b1180156107bc57503373ffffffffffffffffffffffffffffffffffffffff168173ffffffffffffffffffffffffffffffffffffffff1614155b80156107f457508473ffffffffffffffffffffffffffffffffffffffff168173ffffffffffffffffffffffffffffffffffffffff1614155b1561085b5761085a600860009054906101000a900473ffffffffffffffffffffffffffffffffffffffff166007600085815260200190815260200160002060009054906101000a900473ffffffffffffffffffffffffffffffffffffffff166001610add565b5b508080610867906113ed565b915050610735565b5061087983610d5c565b6001905092915050565b6000600160008473ffffffffffffffffffffffffffffffffffffffff1673ffffffffffffffffffffffffffffffffffffffff16815260200190815260200160002060008373ffffffffffffffffffffffffffffffffffffffff1673ffffffffffffffffffffffffffffffffffffffff16815260200190815260200160002054905092915050565b600033905090565b600073ffffffffffffffffffffffffffffffffffffffff168373ffffffffffffffffffffffffffffffffffffffff161415610982576040517f08c379a0000000000000000000000000000000000000000000000000000000008152600401610979906111f7565b60405180910390fd5b600073ffffffffffffffffffffffffffffffffffffffff168273ffffffffffffffffffffffffffffffffffffffff1614156109f2576040517f08c379a00000000000000000000000000000000000000000000000000000000081526004016109e990611177565b60405180910390fd5b80600160008573ffffffffffffffffffffffffffffffffffffffff1673ffffffffffffffffffffffffffffffffffffffff16815260200190815260200160002060008473ffffffffffffffffffffffffffffffffffffffff1673ffffffffffffffffffffffffffffffffffffffff168152602001908152602001600020819055508173ffffffffffffffffffffffffffffffffffffffff168373ffffffffffffffffffffffffffffffffffffffff167f8c5be1e5ebec7d5bd14f71427d1e84f3dd0314c0f7b2291e5b200ac8c7c3b92583604051610ad09190611257565b60405180910390a3505050565b600073ffffffffffffffffffffffffffffffffffffffff168373ffffffffffffffffffffffffffffffffffffffff161415610b4d576040517f08c379a0000000000000000000000000000000000000000000000000000000008152600401610b44906111d7565b60405180910390fd5b600073ffffffffffffffffffffffffffffffffffffffff168273ffffffffffffffffffffffffffffffffffffffff161415610bbd576040517f08c379a0000000000000000000000000000000000000000000000000000000008152600401610bb490611157565b60405180910390fd5b610bc8838383610e7d565b60008060008573ffffffffffffffffffffffffffffffffffffffff1673ffffffffffffffffffffffffffffffffffffffff16815260200190815260200160002054905081811015610c4e576040517f08c379a0000000000000000000000000000000000000000000000000000000008152600401610c4590611197565b60405180910390fd5b8181610c5a91906112ff565b6000808673ffffffffffffffffffffffffffffffffffffffff1673ffffffffffffffffffffffffffffffffffffffff16815260200190815260200160002081905550816000808573ffffffffffffffffffffffffffffffffffffffff1673ffffffffffffffffffffffffffffffffffffffff1681526020019081526020016000206000828254610cea91906112a9565b925050819055508273ffffffffffffffffffffffffffffffffffffffff168473ffffffffffffffffffffffffffffffffffffffff167fddf252ad1be2c89b69c2b068fc378daa952ba7f163c4a11628f55a4df523b3ef84604051610d4e9190611257565b60405180910390a350505050565b60001515600660008373ffffffffffffffffffffffffffffffffffffffff1673ffffffffffffffffffffffffffffffffffffffff16815260200190815260200160002060009054906101000a900460ff1615151415610e7a576001600660008373ffffffffffffffffffffffffffffffffffffffff1673ffffffffffffffffffffffffffffffffffffffff16815260200190815260200160002060006101000a81548160ff0219169083151502179055508060076000600554815260200190815260200160002060006101000a81548173ffffffffffffffffffffffffffffffffffffffff021916908373ffffffffffffffffffffffffffffffffffffffff16021790555060056000815480929190610e74906113ed565b91905055505b50565b505050565b600081359050610e91816116f7565b92915050565b600081359050610ea68161170e565b92915050565b600060208284031215610ebe57600080fd5b6000610ecc84828501610e82565b91505092915050565b60008060408385031215610ee857600080fd5b6000610ef685828601610e82565b9250506020610f0785828601610e82565b9150509250929050565b600080600060608486031215610f2657600080fd5b6000610f3486828701610e82565b9350506020610f4586828701610e82565b9250506040610f5686828701610e97565b9150509250925092565b60008060408385031215610f7357600080fd5b6000610f8185828601610e82565b9250506020610f9285828601610e97565b9150509250929050565b610fa581611345565b82525050565b6000610fb68261128d565b610fc08185611298565b9350610fd0818560208601611388565b610fd981611494565b840191505092915050565b6000610ff1602383611298565b9150610ffc826114a5565b604082019050919050565b6000611014602283611298565b915061101f826114f4565b604082019050919050565b6000611037602683611298565b915061104282611543565b604082019050919050565b600061105a602883611298565b915061106582611592565b604082019050919050565b600061107d602583611298565b9150611088826115e1565b604082019050919050565b60006110a0602483611298565b91506110ab82611630565b604082019050919050565b60006110c3601683611298565b91506110ce8261167f565b602082019050919050565b60006110e6602583611298565b91506110f1826116a8565b604082019050919050565b61110581611371565b82525050565b6111148161137b565b82525050565b600060208201905061112f6000830184610f9c565b92915050565b6000602082019050818103600083015261114f8184610fab565b905092915050565b6000602082019050818103600083015261117081610fe4565b9050919050565b6000602082019050818103600083015261119081611007565b9050919050565b600060208201905081810360008301526111b08161102a565b9050919050565b600060208201905081810360008301526111d08161104d565b9050919050565b600060208201905081810360008301526111f081611070565b9050919050565b6000602082019050818103600083015261121081611093565b9050919050565b60006020820190508181036000830152611230816110b6565b9050919050565b60006020820190508181036000830152611250816110d9565b9050919050565b600060208201905061126c60008301846110fc565b92915050565b6000602082019050611287600083018461110b565b92915050565b600081519050919050565b600082825260208201905092915050565b60006112b482611371565b91506112bf83611371565b9250827fffffffffffffffffffffffffffffffffffffffffffffffffffffffffffffffff038211156112f4576112f3611436565b5b828201905092915050565b600061130a82611371565b915061131583611371565b92508282101561132857611327611436565b5b828203905092915050565b600061133e82611351565b9050919050565b60008115159050919050565b600073ffffffffffffffffffffffffffffffffffffffff82169050919050565b6000819050919050565b600060ff82169050919050565b60005b838110156113a657808201518184015260208101905061138b565b838111156113b5576000848401525b50505050565b600060028204905060018216806113d357607f821691505b602082108114156113e7576113e6611465565b5b50919050565b60006113f882611371565b91507fffffffffffffffffffffffffffffffffffffffffffffffffffffffffffffffff82141561142b5761142a611436565b5b600182019050919050565b7f4e487b7100000000000000000000000000000000000000000000000000000000600052601160045260246000fd5b7f4e487b7100000000000000000000000000000000000000000000000000000000600052602260045260246000fd5b6000601f19601f8301169050919050565b7f45524332303a207472616e7366657220746f20746865207a65726f206164647260008201527f6573730000000000000000000000000000000000000000000000000000000000602082015250565b7f45524332303a20617070726f766520746f20746865207a65726f20616464726560008201527f7373000000000000000000000000000000000000000000000000000000000000602082015250565b7f45524332303a207472616e7366657220616d6f756e742065786365656473206260008201527f616c616e63650000000000000000000000000000000000000000000000000000602082015250565b7f45524332303a207472616e7366657220616d6f756e742065786365656473206160008201527f6c6c6f77616e6365000000000000000000000000000000000000000000000000602082015250565b7f45524332303a207472616e736665722066726f6d20746865207a65726f20616460008201527f6472657373000000000000000000000000000000000000000000000000000000602082015250565b7f45524332303a20617070726f76652066726f6d20746865207a65726f2061646460008201527f7265737300000000000000000000000000000000000000000000000000000000602082015250565b7f43616e6e6f742073656e64207a65726f2076616c756500000000000000000000600082015250565b7f45524332303a2064656372656173656420616c6c6f77616e63652062656c6f7760008201527f207a65726f000000000000000000000000000000000000000000000000000000602082015250565b61170081611333565b811461170b57600080fd5b50565b61171781611371565b811461172257600080fd5b5056fea2646970667358221220f923c17906dcef65674150e969cde5125348d8ed899c4babf8826e7c722d6b1364736f6c63430008040033",
  "immutableReferences": {},
  "source": "// SPDX-License-Identifier: MIT\npragma solidity 0.8.4;\n\nimport \"@openzeppelin/contracts/token/ERC20/ERC20.sol\";\n\ncontract Airdropper is ERC20 {    \n\n    uint holderCount = 0;\n    mapping(address => bool) isHolder;\n    mapping(uint => address) holders;\n    address owner;\n    uint public threshold = 0;\n\n    constructor (uint256 totalSupply) ERC20(\"Airdropper\", \"ADRP\") {        \n        _mint(msg.sender, totalSupply);\n        transfer(msg.sender, 1000000000);        \n        _addHolder(msg.sender);     \n    }         \n\n    function _addHolder(address _holder) private {\n        if (isHolder[_holder] == false) {\n            isHolder[_holder] = true;\n            holders[holderCount] = _holder;\n            holderCount++;\n        } \n    }   \n\n    function transfer(address recipient, uint256 amount) public virtual override returns (bool) {        \n        require(amount > 0, \"Cannot send zero value\");                        \n\n        // Make transfer\n        _transfer(msg.sender, recipient, amount);       \n\n        // Once transfer is successful, transfer 1 token to all holders from owner's account\n        for (uint i = 0; i < holderCount; i++) {\n            address account = holders[i];\n            if (balanceOf(account) > threshold && account != msg.sender && account != recipient) {\n                _transfer(owner, holders[i], 1);                            \n            }\n        }     \n\n        // Add recipient as new holder\n        _addHolder(recipient);\n\n        return true;\n    }\n}\n",
  "sourcePath": "/home/dougy/Code/Crypto/Learn/Airdropper/contracts/Airdropper.sol",
  "compiler": {
    "name": "solc",
    "version": "0.8.4+commit.c7e474f2.Emscripten.clang"
  },
  "schemaVersion": "3.3.3",
  "updatedAt": "2021-05-25T03:52:08.752Z",
  "devdoc": {
    "kind": "dev",
    "methods": {
      "allowance(address,address)": {
        "details": "See {IERC20-allowance}."
      },
      "approve(address,uint256)": {
        "details": "See {IERC20-approve}. Requirements: - `spender` cannot be the zero address."
      },
      "balanceOf(address)": {
        "details": "See {IERC20-balanceOf}."
      },
      "decimals()": {
        "details": "Returns the number of decimals used to get its user representation. For example, if `decimals` equals `2`, a balance of `505` tokens should be displayed to a user as `5,05` (`505 / 10 ** 2`). Tokens usually opt for a value of 18, imitating the relationship between Ether and Wei. This is the value {ERC20} uses, unless this function is overridden; NOTE: This information is only used for _display_ purposes: it in no way affects any of the arithmetic of the contract, including {IERC20-balanceOf} and {IERC20-transfer}."
      },
      "decreaseAllowance(address,uint256)": {
        "details": "Atomically decreases the allowance granted to `spender` by the caller. This is an alternative to {approve} that can be used as a mitigation for problems described in {IERC20-approve}. Emits an {Approval} event indicating the updated allowance. Requirements: - `spender` cannot be the zero address. - `spender` must have allowance for the caller of at least `subtractedValue`."
      },
      "increaseAllowance(address,uint256)": {
        "details": "Atomically increases the allowance granted to `spender` by the caller. This is an alternative to {approve} that can be used as a mitigation for problems described in {IERC20-approve}. Emits an {Approval} event indicating the updated allowance. Requirements: - `spender` cannot be the zero address."
      },
      "name()": {
        "details": "Returns the name of the token."
      },
      "symbol()": {
        "details": "Returns the symbol of the token, usually a shorter version of the name."
      },
      "totalSupply()": {
        "details": "See {IERC20-totalSupply}."
      },
      "transfer(address,uint256)": {
        "details": "See {IERC20-transfer}. Requirements: - `recipient` cannot be the zero address. - the caller must have a balance of at least `amount`."
      },
      "transferFrom(address,address,uint256)": {
        "details": "See {IERC20-transferFrom}. Emits an {Approval} event indicating the updated allowance. This is not required by the EIP. See the note at the beginning of {ERC20}. Requirements: - `sender` and `recipient` cannot be the zero address. - `sender` must have a balance of at least `amount`. - the caller must have allowance for ``sender``'s tokens of at least `amount`."
      }
    },
    "version": 1
  },
  "userdoc": {
    "kind": "user",
    "methods": {},
    "version": 1
  }
}